{
  "_format": "hh-sol-artifact-1",
  "contractName": "RoyaltyStream",
  "sourceName": "contracts/RoyaltyStream.sol",
  "abi": [
    {
      "inputs": [
        {
          "internalType": "address",
          "name": "_usdc",
          "type": "address"
        },
        {
          "internalType": "address",
          "name": "_registry",
          "type": "address"
        },
        {
          "internalType": "address",
          "name": "_keeper",
          "type": "address"
        }
      ],
      "stateMutability": "nonpayable",
      "type": "constructor"
    },
    {
      "anonymous": false,
      "inputs": [
        {
          "indexed": true,
          "internalType": "address",
          "name": "consumer",
          "type": "address"
        },
        {
          "indexed": false,
          "internalType": "uint256",
          "name": "amount",
          "type": "uint256"
        }
      ],
      "name": "Deposited",
      "type": "event"
    },
    {
      "anonymous": false,
      "inputs": [
        {
          "indexed": true,
          "internalType": "address",
          "name": "consumer",
          "type": "address"
        },
        {
          "indexed": false,
          "internalType": "bytes32",
          "name": "contentHash",
          "type": "bytes32"
        },
        {
          "indexed": false,
          "internalType": "uint256",
          "name": "amount",
          "type": "uint256"
        }
      ],
      "name": "Executed",
      "type": "event"
    },
    {
      "inputs": [
        {
          "internalType": "address",
          "name": "",
          "type": "address"
        }
      ],
      "name": "balance",
      "outputs": [
        {
          "internalType": "uint256",
          "name": "",
          "type": "uint256"
        }
      ],
      "stateMutability": "view",
      "type": "function"
    },
    {
      "inputs": [
        {
          "internalType": "uint256",
          "name": "amount",
          "type": "uint256"
        }
      ],
      "name": "deposit",
      "outputs": [],
      "stateMutability": "nonpayable",
      "type": "function"
    },
    {
      "inputs": [
        {
          "internalType": "address",
          "name": "consumer",
          "type": "address"
        },
        {
          "internalType": "bytes32",
          "name": "contentHash",
          "type": "bytes32"
        },
        {
          "internalType": "uint64",
          "name": "tokenCount",
          "type": "uint64"
        }
      ],
      "name": "executeConsumption",
      "outputs": [],
      "stateMutability": "nonpayable",
      "type": "function"
    },
    {
      "inputs": [],
      "name": "keeper",
      "outputs": [
        {
          "internalType": "address",
          "name": "",
          "type": "address"
        }
      ],
      "stateMutability": "view",
      "type": "function"
    },
    {
      "inputs": [],
      "name": "registry",
      "outputs": [
        {
          "internalType": "address",
          "name": "",
          "type": "address"
        }
      ],
      "stateMutability": "view",
      "type": "function"
    },
    {
      "inputs": [],
      "name": "usdc",
      "outputs": [
        {
          "internalType": "contract IUSDC",
          "name": "",
          "type": "address"
        }
      ],
      "stateMutability": "view",
      "type": "function"
    }
  ],
  "bytecode": "0x60a06040523480156200001157600080fd5b506040516200112f3803806200112f83398181016040528101906200003791906200015f565b8273ffffffffffffffffffffffffffffffffffffffff1660808173ffffffffffffffffffffffffffffffffffffffff168152505081600160006101000a81548173ffffffffffffffffffffffffffffffffffffffff021916908373ffffffffffffffffffffffffffffffffffffffff160217905550806000806101000a81548173ffffffffffffffffffffffffffffffffffffffff021916908373ffffffffffffffffffffffffffffffffffffffff160217905550505050620001bb565b600080fd5b600073ffffffffffffffffffffffffffffffffffffffff82169050919050565b60006200012782620000fa565b9050919050565b62000139816200011a565b81146200014557600080fd5b50565b60008151905062000159816200012e565b92915050565b6000806000606084860312156200017b576200017a620000f5565b5b60006200018b8682870162000148565b93505060206200019e8682870162000148565b9250506040620001b18682870162000148565b9150509250925092565b608051610f4a620001e56000396000818161012b0152818161039101526105820152610f4a6000f3fe608060405234801561001057600080fd5b50600436106100625760003560e01c80633e413bee1461006757806364ef7595146100855780637b103999146100a1578063aced1661146100bf578063b6b55f25146100dd578063e3d670d7146100f9575b600080fd5b61006f610129565b60405161007c919061075f565b60405180910390f35b61009f600480360381019061009a9190610842565b61014d565b005b6100a9610536565b6040516100b691906108a4565b60405180910390f35b6100c761055c565b6040516100d491906108a4565b60405180910390f35b6100f760048036038101906100f291906108f5565b610580565b005b610113600480360381019061010e9190610922565b6106c8565b604051610120919061095e565b60405180910390f35b7f000000000000000000000000000000000000000000000000000000000000000081565b60008054906101000a900473ffffffffffffffffffffffffffffffffffffffff1673ffffffffffffffffffffffffffffffffffffffff163373ffffffffffffffffffffffffffffffffffffffff16146101db576040517f08c379a00000000000000000000000000000000000000000000000000000000081526004016101d2906109d6565b60405180910390fd5b6000600160009054906101000a900473ffffffffffffffffffffffffffffffffffffffff1673ffffffffffffffffffffffffffffffffffffffff16636be39bda846040518263ffffffff1660e01b81526004016102389190610a05565b600060405180830381865afa158015610255573d6000803e3d6000fd5b505050506040513d6000823e3d601f19601f8201168201806040525081019061027e9190610bda565b9250505060006103e8826bffffffffffffffffffffffff168467ffffffffffffffff166102ab9190610c78565b6102b59190610ce9565b905080600260008773ffffffffffffffffffffffffffffffffffffffff1673ffffffffffffffffffffffffffffffffffffffff168152602001908152602001600020541015610339576040517f08c379a000000000000000000000000000000000000000000000000000000000815260040161033090610d66565b60405180910390fd5b80600260008773ffffffffffffffffffffffffffffffffffffffff1673ffffffffffffffffffffffffffffffffffffffff16815260200190815260200160002060008282546103889190610d86565b925050819055507f000000000000000000000000000000000000000000000000000000000000000073ffffffffffffffffffffffffffffffffffffffff1663095ea7b3600160009054906101000a900473ffffffffffffffffffffffffffffffffffffffff16836040518363ffffffff1660e01b815260040161040c929190610dba565b6020604051808303816000875af115801561042b573d6000803e3d6000fd5b505050506040513d601f19601f8201168201806040525081019061044f9190610e1b565b50600160009054906101000a900473ffffffffffffffffffffffffffffffffffffffff1673ffffffffffffffffffffffffffffffffffffffff1663b87a8ecd85856040518363ffffffff1660e01b81526004016104ad929190610e57565b600060405180830381600087803b1580156104c757600080fd5b505af11580156104db573d6000803e3d6000fd5b505050508473ffffffffffffffffffffffffffffffffffffffff167fb0f9da9a22226cd3992c7625b1ebbbc378a233b071cfb9d220a520290f1ea4da8583604051610527929190610e80565b60405180910390a25050505050565b600160009054906101000a900473ffffffffffffffffffffffffffffffffffffffff1681565b60008054906101000a900473ffffffffffffffffffffffffffffffffffffffff1681565b7f000000000000000000000000000000000000000000000000000000000000000073ffffffffffffffffffffffffffffffffffffffff166323b872dd3330846040518463ffffffff1660e01b81526004016105dd93929190610ea9565b6020604051808303816000875af11580156105fc573d6000803e3d6000fd5b505050506040513d601f19601f820116820180604052508101906106209190610e1b565b5080600260003373ffffffffffffffffffffffffffffffffffffffff1673ffffffffffffffffffffffffffffffffffffffff16815260200190815260200160002060008282546106709190610ee0565b925050819055503373ffffffffffffffffffffffffffffffffffffffff167f2da466a7b24304f47e87fa2e1e5a81b9831ce54fec19055ce277ca2f39ba42c4826040516106bd919061095e565b60405180910390a250565b60026020528060005260406000206000915090505481565b600073ffffffffffffffffffffffffffffffffffffffff82169050919050565b6000819050919050565b600061072561072061071b846106e0565b610700565b6106e0565b9050919050565b60006107378261070a565b9050919050565b60006107498261072c565b9050919050565b6107598161073e565b82525050565b60006020820190506107746000830184610750565b92915050565b6000604051905090565b600080fd5b600080fd5b6000610799826106e0565b9050919050565b6107a98161078e565b81146107b457600080fd5b50565b6000813590506107c6816107a0565b92915050565b6000819050919050565b6107df816107cc565b81146107ea57600080fd5b50565b6000813590506107fc816107d6565b92915050565b600067ffffffffffffffff82169050919050565b61081f81610802565b811461082a57600080fd5b50565b60008135905061083c81610816565b92915050565b60008060006060848603121561085b5761085a610784565b5b6000610869868287016107b7565b935050602061087a868287016107ed565b925050604061088b8682870161082d565b9150509250925092565b61089e8161078e565b82525050565b60006020820190506108b96000830184610895565b92915050565b6000819050919050565b6108d2816108bf565b81146108dd57600080fd5b50565b6000813590506108ef816108c9565b92915050565b60006020828403121561090b5761090a610784565b5b6000610919848285016108e0565b91505092915050565b60006020828403121561093857610937610784565b5b6000610946848285016107b7565b91505092915050565b610958816108bf565b82525050565b6000602082019050610973600083018461094f565b92915050565b600082825260208201905092915050565b7f4f6e6c79206b6565706572000000000000000000000000000000000000000000600082015250565b60006109c0600b83610979565b91506109cb8261098a565b602082019050919050565b600060208201905081810360008301526109ef816109b3565b9050919050565b6109ff816107cc565b82525050565b6000602082019050610a1a60008301846109f6565b92915050565b600081519050610a2f816107a0565b92915050565b600080fd5b600080fd5b6000601f19601f8301169050919050565b7f4e487b7100000000000000000000000000000000000000000000000000000000600052604160045260246000fd5b610a8882610a3f565b810181811067ffffffffffffffff82111715610aa757610aa6610a50565b5b80604052505050565b6000610aba61077a565b9050610ac68282610a7f565b919050565b600067ffffffffffffffff821115610ae657610ae5610a50565b5b610aef82610a3f565b9050602081019050919050565b60005b83811015610b1a578082015181840152602081019050610aff565b60008484015250505050565b6000610b39610b3484610acb565b610ab0565b905082815260208101848484011115610b5557610b54610a3a565b5b610b60848285610afc565b509392505050565b600082601f830112610b7d57610b7c610a35565b5b8151610b8d848260208601610b26565b91505092915050565b60006bffffffffffffffffffffffff82169050919050565b610bb781610b96565b8114610bc257600080fd5b50565b600081519050610bd481610bae565b92915050565b600080600060608486031215610bf357610bf2610784565b5b6000610c0186828701610a20565b935050602084015167ffffffffffffffff811115610c2257610c21610789565b5b610c2e86828701610b68565b9250506040610c3f86828701610bc5565b9150509250925092565b7f4e487b7100000000000000000000000000000000000000000000000000000000600052601160045260246000fd5b6000610c83826108bf565b9150610c8e836108bf565b9250828202610c9c816108bf565b91508282048414831517610cb357610cb2610c49565b5b5092915050565b7f4e487b7100000000000000000000000000000000000000000000000000000000600052601260045260246000fd5b6000610cf4826108bf565b9150610cff836108bf565b925082610d0f57610d0e610cba565b5b828204905092915050565b7f496e73756666696369656e742062616c616e6365000000000000000000000000600082015250565b6000610d50601483610979565b9150610d5b82610d1a565b602082019050919050565b60006020820190508181036000830152610d7f81610d43565b9050919050565b6000610d91826108bf565b9150610d9c836108bf565b9250828203905081811115610db457610db3610c49565b5b92915050565b6000604082019050610dcf6000830185610895565b610ddc602083018461094f565b9392505050565b60008115159050919050565b610df881610de3565b8114610e0357600080fd5b50565b600081519050610e1581610def565b92915050565b600060208284031215610e3157610e30610784565b5b6000610e3f84828501610e06565b91505092915050565b610e5181610802565b82525050565b6000604082019050610e6c60008301856109f6565b610e796020830184610e48565b9392505050565b6000604082019050610e9560008301856109f6565b610ea2602083018461094f565b9392505050565b6000606082019050610ebe6000830186610895565b610ecb6020830185610895565b610ed8604083018461094f565b949350505050565b6000610eeb826108bf565b9150610ef6836108bf565b9250828201905080821115610f0e57610f0d610c49565b5b9291505056fea2646970667358221220bab1df27c006bbc3880cd5262b1329b2e674f0506627148f5723532d208e1f9164736f6c63430008180033",
  "linkReferences": {},
  "deployedLinkReferences": {}
}