{
  "_format": "hh-sol-artifact-1",
  "contractName": "FairTrainRegistry",
  "sourceName": "contracts/FairTrainRegistry.sol",
  "abi": [
    {
      "inputs": [
        {
          "internalType": "address",
          "name": "_usdc",
          "type": "address"
        }
      ],
      "stateMutability": "nonpayable",
      "type": "constructor"
    },
    {
      "anonymous": false,
      "inputs": [
        {
          "indexed": true,
          "internalType": "bytes32",
          "name": "contentHash",
          "type": "bytes32"
        },
        {
          "indexed": true,
          "internalType": "address",
          "name": "creator",
          "type": "address"
        },
        {
          "indexed": false,
          "internalType": "string",
          "name": "ensName",
          "type": "string"
        },
        {
          "indexed": false,
          "internalType": "uint96",
          "name": "pricePerKToken",
          "type": "uint96"
        }
      ],
      "name": "ContentRegistered",
      "type": "event"
    },
    {
      "anonymous": false,
      "inputs": [
        {
          "indexed": true,
          "internalType": "bytes32",
          "name": "contentHash",
          "type": "bytes32"
        },
        {
          "indexed": true,
          "internalType": "address",
          "name": "consumer",
          "type": "address"
        },
        {
          "indexed": false,
          "internalType": "uint64",
          "name": "tokenCount",
          "type": "uint64"
        },
        {
          "indexed": false,
          "internalType": "uint256",
          "name": "usdcPaid",
          "type": "uint256"
        },
        {
          "indexed": false,
          "internalType": "uint256",
          "name": "timestamp",
          "type": "uint256"
        }
      ],
      "name": "DataConsumed",
      "type": "event"
    },
    {
      "inputs": [
        {
          "internalType": "bytes32",
          "name": "contentHash",
          "type": "bytes32"
        },
        {
          "internalType": "uint64",
          "name": "tokenCount",
          "type": "uint64"
        }
      ],
      "name": "consume",
      "outputs": [],
      "stateMutability": "nonpayable",
      "type": "function"
    },
    {
      "inputs": [
        {
          "internalType": "bytes32",
          "name": "contentHash",
          "type": "bytes32"
        }
      ],
      "name": "getTerms",
      "outputs": [
        {
          "internalType": "address",
          "name": "creator",
          "type": "address"
        },
        {
          "internalType": "string",
          "name": "ensName",
          "type": "string"
        },
        {
          "internalType": "uint96",
          "name": "pricePerKToken",
          "type": "uint96"
        }
      ],
      "stateMutability": "view",
      "type": "function"
    },
    {
      "inputs": [
        {
          "internalType": "bytes32",
          "name": "contentHash",
          "type": "bytes32"
        },
        {
          "internalType": "string",
          "name": "ensName",
          "type": "string"
        },
        {
          "internalType": "uint96",
          "name": "pricePerKToken",
          "type": "uint96"
        }
      ],
      "name": "register",
      "outputs": [],
      "stateMutability": "nonpayable",
      "type": "function"
    },
    {
      "inputs": [
        {
          "internalType": "bytes32",
          "name": "",
          "type": "bytes32"
        }
      ],
      "name": "registry",
      "outputs": [
        {
          "internalType": "bytes32",
          "name": "contentHash",
          "type": "bytes32"
        },
        {
          "internalType": "address",
          "name": "creator",
          "type": "address"
        },
        {
          "internalType": "string",
          "name": "ensName",
          "type": "string"
        },
        {
          "internalType": "uint96",
          "name": "pricePerKToken",
          "type": "uint96"
        },
        {
          "internalType": "uint64",
          "name": "registeredAt",
          "type": "uint64"
        }
      ],
      "stateMutability": "view",
      "type": "function"
    },
    {
      "inputs": [
        {
          "internalType": "bytes32",
          "name": "",
          "type": "bytes32"
        }
      ],
      "name": "totalEarned",
      "outputs": [
        {
          "internalType": "uint256",
          "name": "",
          "type": "uint256"
        }
      ],
      "stateMutability": "view",
      "type": "function"
    },
    {
      "inputs": [],
      "name": "usdc",
      "outputs": [
        {
          "internalType": "contract IUSDC",
          "name": "",
          "type": "address"
        }
      ],
      "stateMutability": "view",
      "type": "function"
    }
  ],
  "bytecode": "0x60a06040523480156200001157600080fd5b50604051620015ed380380620015ed8339818101604052810190620000379190620000dc565b8073ffffffffffffffffffffffffffffffffffffffff1660808173ffffffffffffffffffffffffffffffffffffffff1681525050506200010e565b600080fd5b600073ffffffffffffffffffffffffffffffffffffffff82169050919050565b6000620000a48262000077565b9050919050565b620000b68162000097565b8114620000c257600080fd5b50565b600081519050620000d681620000ab565b92915050565b600060208284031215620000f557620000f462000072565b5b60006200010584828501620000c5565b91505092915050565b6080516114bc620001316000396000818161016d01526108f001526114bc6000f3fe608060405234801561001057600080fd5b50600436106100625760003560e01c80632890a10d146100675780633e413bee146100975780636be39bda146100b55780637ef50298146100e7578063a1587bd11461011b578063b87a8ecd14610137575b600080fd5b610081600480360381019061007c9190610a57565b610153565b60405161008e9190610a9d565b60405180910390f35b61009f61016b565b6040516100ac9190610b37565b60405180910390f35b6100cf60048036038101906100ca9190610a57565b61018f565b6040516100de93929190610c2a565b60405180910390f35b61010160048036038101906100fc9190610a57565b610334565b604051610112959493929190610c9a565b60405180910390f35b61013560048036038101906101309190610d85565b61043e565b005b610151600480360381019061014c9190610e25565b6106b6565b005b60016020528060005260406000206000915090505481565b7f000000000000000000000000000000000000000000000000000000000000000081565b600060606000806000808681526020019081526020016000206040518060a0016040529081600082015481526020016001820160009054906101000a900473ffffffffffffffffffffffffffffffffffffffff1673ffffffffffffffffffffffffffffffffffffffff1673ffffffffffffffffffffffffffffffffffffffff16815260200160028201805461022390610e94565b80601f016020809104026020016040519081016040528092919081815260200182805461024f90610e94565b801561029c5780601f106102715761010080835404028352916020019161029c565b820191906000526020600020905b81548152906001019060200180831161027f57829003601f168201915b505050505081526020016003820160009054906101000a90046bffffffffffffffffffffffff166bffffffffffffffffffffffff166bffffffffffffffffffffffff16815260200160038201600c9054906101000a900467ffffffffffffffff1667ffffffffffffffff1667ffffffffffffffff16815250509050806020015181604001518260600151935093509350509193909250565b60006020528060005260406000206000915090508060000154908060010160009054906101000a900473ffffffffffffffffffffffffffffffffffffffff169080600201805461038390610e94565b80601f01602080910402602001604051908101604052809291908181526020018280546103af90610e94565b80156103fc5780601f106103d1576101008083540402835291602001916103fc565b820191906000526020600020905b8154815290600101906020018083116103df57829003601f168201915b5050505050908060030160009054906101000a90046bffffffffffffffffffffffff169080600301600c9054906101000a900467ffffffffffffffff16905085565b600073ffffffffffffffffffffffffffffffffffffffff1660008086815260200190815260200160002060010160009054906101000a900473ffffffffffffffffffffffffffffffffffffffff1673ffffffffffffffffffffffffffffffffffffffff16146104e2576040517f08c379a00000000000000000000000000000000000000000000000000000000081526004016104d990610f11565b60405180910390fd5b6040518060a001604052808581526020013373ffffffffffffffffffffffffffffffffffffffff16815260200184848080601f016020809104026020016040519081016040528093929190818152602001838380828437600081840152601f19601f820116905080830192505050505050508152602001826bffffffffffffffffffffffff1681526020014267ffffffffffffffff168152506000808681526020019081526020016000206000820151816000015560208201518160010160006101000a81548173ffffffffffffffffffffffffffffffffffffffff021916908373ffffffffffffffffffffffffffffffffffffffff16021790555060408201518160020190816105f39190611102565b5060608201518160030160006101000a8154816bffffffffffffffffffffffff02191690836bffffffffffffffffffffffff160217905550608082015181600301600c6101000a81548167ffffffffffffffff021916908367ffffffffffffffff1602179055509050503373ffffffffffffffffffffffffffffffffffffffff16847f9405c8d3e41b9730a42aa21895eb40d753cef30aa45813a2db9f3d1edaeac2888585856040516106a893929190611210565b60405180910390a350505050565b60008060008481526020019081526020016000206040518060a0016040529081600082015481526020016001820160009054906101000a900473ffffffffffffffffffffffffffffffffffffffff1673ffffffffffffffffffffffffffffffffffffffff1673ffffffffffffffffffffffffffffffffffffffff16815260200160028201805461074590610e94565b80601f016020809104026020016040519081016040528092919081815260200182805461077190610e94565b80156107be5780601f10610793576101008083540402835291602001916107be565b820191906000526020600020905b8154815290600101906020018083116107a157829003601f168201915b505050505081526020016003820160009054906101000a90046bffffffffffffffffffffffff166bffffffffffffffffffffffff166bffffffffffffffffffffffff16815260200160038201600c9054906101000a900467ffffffffffffffff1667ffffffffffffffff1667ffffffffffffffff16815250509050600073ffffffffffffffffffffffffffffffffffffffff16816020015173ffffffffffffffffffffffffffffffffffffffff16036108ac576040517f08c379a00000000000000000000000000000000000000000000000000000000081526004016108a39061128e565b60405180910390fd5b60006103e882606001516bffffffffffffffffffffffff168467ffffffffffffffff166108d991906112dd565b6108e3919061134e565b905060008111156109be577f000000000000000000000000000000000000000000000000000000000000000073ffffffffffffffffffffffffffffffffffffffff166323b872dd338460200151846040518463ffffffff1660e01b815260040161094f9392919061137f565b6020604051808303816000875af115801561096e573d6000803e3d6000fd5b505050506040513d601f19601f8201168201806040525081019061099291906113ee565b50806001600086815260200190815260200160002060008282546109b6919061141b565b925050819055505b3373ffffffffffffffffffffffffffffffffffffffff16847ffe92119acf103fa8609bbfc894a75e6cede468198d11ae4e6c814d4d727640a0858442604051610a099392919061144f565b60405180910390a350505050565b600080fd5b600080fd5b6000819050919050565b610a3481610a21565b8114610a3f57600080fd5b50565b600081359050610a5181610a2b565b92915050565b600060208284031215610a6d57610a6c610a17565b5b6000610a7b84828501610a42565b91505092915050565b6000819050919050565b610a9781610a84565b82525050565b6000602082019050610ab26000830184610a8e565b92915050565b600073ffffffffffffffffffffffffffffffffffffffff82169050919050565b6000819050919050565b6000610afd610af8610af384610ab8565b610ad8565b610ab8565b9050919050565b6000610b0f82610ae2565b9050919050565b6000610b2182610b04565b9050919050565b610b3181610b16565b82525050565b6000602082019050610b4c6000830184610b28565b92915050565b6000610b5d82610ab8565b9050919050565b610b6d81610b52565b82525050565b600081519050919050565b600082825260208201905092915050565b60005b83811015610bad578082015181840152602081019050610b92565b60008484015250505050565b6000601f19601f8301169050919050565b6000610bd582610b73565b610bdf8185610b7e565b9350610bef818560208601610b8f565b610bf881610bb9565b840191505092915050565b60006bffffffffffffffffffffffff82169050919050565b610c2481610c03565b82525050565b6000606082019050610c3f6000830186610b64565b8181036020830152610c518185610bca565b9050610c606040830184610c1b565b949350505050565b610c7181610a21565b82525050565b600067ffffffffffffffff82169050919050565b610c9481610c77565b82525050565b600060a082019050610caf6000830188610c68565b610cbc6020830187610b64565b8181036040830152610cce8186610bca565b9050610cdd6060830185610c1b565b610cea6080830184610c8b565b9695505050505050565b600080fd5b600080fd5b600080fd5b60008083601f840112610d1957610d18610cf4565b5b8235905067ffffffffffffffff811115610d3657610d35610cf9565b5b602083019150836001820283011115610d5257610d51610cfe565b5b9250929050565b610d6281610c03565b8114610d6d57600080fd5b50565b600081359050610d7f81610d59565b92915050565b60008060008060608587031215610d9f57610d9e610a17565b5b6000610dad87828801610a42565b945050602085013567ffffffffffffffff811115610dce57610dcd610a1c565b5b610dda87828801610d03565b93509350506040610ded87828801610d70565b91505092959194509250565b610e0281610c77565b8114610e0d57600080fd5b50565b600081359050610e1f81610df9565b92915050565b60008060408385031215610e3c57610e3b610a17565b5b6000610e4a85828601610a42565b9250506020610e5b85828601610e10565b9150509250929050565b7f4e487b7100000000000000000000000000000000000000000000000000000000600052602260045260246000fd5b60006002820490506001821680610eac57607f821691505b602082108103610ebf57610ebe610e65565b5b50919050565b7f416c726561647920726567697374657265640000000000000000000000000000600082015250565b6000610efb601283610b7e565b9150610f0682610ec5565b602082019050919050565b60006020820190508181036000830152610f2a81610eee565b9050919050565b7f4e487b7100000000000000000000000000000000000000000000000000000000600052604160045260246000fd5b60008190508160005260206000209050919050565b60006020601f8301049050919050565b600082821b905092915050565b600060088302610fc27fffffffffffffffffffffffffffffffffffffffffffffffffffffffffffffffff82610f85565b610fcc8683610f85565b95508019841693508086168417925050509392505050565b6000610fff610ffa610ff584610a84565b610ad8565b610a84565b9050919050565b6000819050919050565b61101983610fe4565b61102d61102582611006565b848454610f92565b825550505050565b600090565b611042611035565b61104d818484611010565b505050565b5b818110156110715761106660008261103a565b600181019050611053565b5050565b601f8211156110b65761108781610f60565b61109084610f75565b8101602085101561109f578190505b6110b36110ab85610f75565b830182611052565b50505b505050565b600082821c905092915050565b60006110d9600019846008026110bb565b1980831691505092915050565b60006110f283836110c8565b9150826002028217905092915050565b61110b82610b73565b67ffffffffffffffff81111561112457611123610f31565b5b61112e8254610e94565b611139828285611075565b600060209050601f83116001811461116c576000841561115a578287015190505b61116485826110e6565b8655506111cc565b601f19841661117a86610f60565b60005b828110156111a25784890151825560018201915060208501945060208101905061117d565b868310156111bf57848901516111bb601f8916826110c8565b8355505b6001600288020188555050505b505050505050565b82818337600083830152505050565b60006111ef8385610b7e565b93506111fc8385846111d4565b61120583610bb9565b840190509392505050565b6000604082019050818103600083015261122b8185876111e3565b905061123a6020830184610c1b565b949350505050565b7f436f6e74656e74206e6f74207265676973746572656400000000000000000000600082015250565b6000611278601683610b7e565b915061128382611242565b602082019050919050565b600060208201905081810360008301526112a78161126b565b9050919050565b7f4e487b7100000000000000000000000000000000000000000000000000000000600052601160045260246000fd5b60006112e882610a84565b91506112f383610a84565b925082820261130181610a84565b91508282048414831517611318576113176112ae565b5b5092915050565b7f4e487b7100000000000000000000000000000000000000000000000000000000600052601260045260246000fd5b600061135982610a84565b915061136483610a84565b9250826113745761137361131f565b5b828204905092915050565b60006060820190506113946000830186610b64565b6113a16020830185610b64565b6113ae6040830184610a8e565b949350505050565b60008115159050919050565b6113cb816113b6565b81146113d657600080fd5b50565b6000815190506113e8816113c2565b92915050565b60006020828403121561140457611403610a17565b5b6000611412848285016113d9565b91505092915050565b600061142682610a84565b915061143183610a84565b9250828201905080821115611449576114486112ae565b5b92915050565b60006060820190506114646000830186610c8b565b6114716020830185610a8e565b61147e6040830184610a8e565b94935050505056fea264697066735822122026765b87a511a91ea75d33701c0c8621696d3acc77da012382b9c4268df41a6e64736f6c63430008180033",
  "linkReferences": {},
  "deployedLinkReferences": {}
}